:020000040000FA
:0600000000F04AEF00F0E1
:10000800FFFF7882E9CF64F0EACF65F0E1CF66F0D0
:10001800E2CF67F0D9CF68F0DACF69F0F3CF6AF0B2
:10002800F4CF6BF0F6CF6CF0F7CF6DF0F8CF6EF041
:10003800F5CF6FF0F294F70ED76E3C0ED66EDEEC6D
:100048000DF030EC08F04EEC03F02FEC0EF0D6EC8F
:100058000CF095EC0FF06FC0F5FF6EC0F8FF6DC0A7
:10006800F7FF6CC0F6FF6BC0F4FF6AC0F3FF69C00E
:10007800DAFF68C0D9FF67C0E2FF66C0E1FF65C06C
:10008800EAFF64C0E9FF78921100FFFF16EF10F055
:10060000002048656174696E67202020202020202A
:100610002020002020202049732046696E697368DD
:1006200065642020002020202057454C434F4D4535
:1006300020212020200020202050757420466F6F3C
:10064000642021202020002020205365742054693C
:100650006D65202120202000202020436C6F7365D1
:1006600020446F6F72202120002020507265737328
:1006700020416E79204B6579200020202020506198
:100680007573656420212020200020202020204830
:0B069000656174696E672E2E2E00005D
:10069C00FFFF265027C057F0586A5726000E5822E5
:1006AC0025505726000E582224505724596E000E00
:1006BC0058205A6E0A0E7526320E7518D8B469EF8A
:1006CC0003F06CEF03F0FFFF6FEF03F0FFFF6CEF35
:1006DC0006F0FFFF000E756E76506FEC11F0765041
:1006EC007BEC11F0770E4B6E000E4C6E39EC10F06B
:1006FC00E806D8A484EF03F087EF03F0FFFF8EEF3A
:10070C0003F0FFFF770E4B6E000E4C6E39EC10F0C1
:10071C00FFFF020E7618D8A496EF03F099EF03F0C2
:10072C00FFFFA8EF03F0FFFF010E4B6E000E76ECFF
:10073C000CF0010E4B6E010E76EC0CF02FEC0FF062
:10074C00CCEF03F0FFFF000E4B6E000E76EC0CF0BE
:10075C00000E4B6E010E76EC0CF0000E4B6E020E82
:10076C0076EC0CF0000E4B6E030E76EC0CF076046F
:10077C00D8A4C3EF03F0C6EF03F0FFFFCCEF03F0F8
:10078C00FFFF010E4B6E020E76EC0CF0FFFF010E1C
:10079C0019EC11F0020AD8A4D6EF03F0D9EF03F04C
:1007AC00FFFFDCEF03F0FFFF010E2A6EFFFF2A04B0
:1007BC00D8A4E3EF03F0E6EF03F0FFFF3DEF06F004
:1007CC00FFFF000E19EC11F0020AD8A4F0EF03F0B1
:1007DC00F3EF03F0FFFF3DEF06F0FFFF010E296E74
:1007EC003DEF06F0FFFF000E75EC11F00C0E7718C4
:1007FC00D8B403EF04F006EF04F0FFFF6CEF06F043
:10080C00FFFF010E286E0C0E776E57EC11F06CEF9B
:10081C0006F0FFFF010E75EC11F00B0E7718D8A443
:10082C001AEF04F01DEF04F0FFFF30EF04F0FFFFB0
:10083C0059505A10D8B425EF04F028EF04F0FFFFFC
:10084C0030EF04F0FFFFFFFF050E286E0C0E776EE5
:10085C006CEF06F0FFFF0A0E7718D8A438EF04F0FF
:10086C003BEF04F0FFFF43EF04F0FFFFFFFF060E2A
:10087C00286E0C0E776E6CEF06F0FFFF0C0E7718DF
:10088C00D8B44BEF04F04EEF04F0FFFF6CEF06F022
:10089C00FFFF0B0E7718D8B456EF04F059EF04F0A5
:1008AC00FFFF6CEF06F0FFFF050E776460EF04F0BE
:1008BC0063EF04F0FFFF68EF04F0FFFF050E266EF8
:1008CC006BEF04F0FFFF77C026F0FFFF020E286EDF
:1008DC000C0E776E27C04BF024C04CF025C04DF0A9
:1008EC002650F6EC10F06CEF06F0FFFF020E75ECE4
:1008FC0011F00B0E7718D8A486EF04F089EF04F0F2
:10090C00FFFF97EF04F0FFFF59505A10D8B491EF46
:10091C0004F094EF04F0FFFF97EF04F0FFFF29EFD2
:10092C0004F0FFFF0A0E7718D8A49FEF04F0A2EF93
:10093C0004F0FFFFA5EF04F0FFFF3CEF04F0FFFF16
:10094C000C0E7718D8B4ADEF04F0B0EF04F0FFFF45
:10095C006CEF06F0FFFF0B0E7718D8B4B8EF04F06D
:10096C00BBEF04F0FFFF6CEF06F0FFFF77C027F042
:10097C00030E286E0C0E776E27C04BF024C04CF083
:10098C0025C04DF02650F6EC10F06CEF06F0FFFF92
:10099C00030E75EC11F00B0E7718D8A4D8EF04F0F9
:1009AC00DBEF04F0FFFFE9EF04F0FFFF59505A10A2
:1009BC00D8B4E3EF04F0E6EF04F0FFFFE9EF04F046
:1009CC00FFFF29EF04F0FFFF0A0E7718D8A4F1EF10
:1009DC0004F0F4EF04F0FFFFF7EF04F0FFFF3CEF3F
:1009EC0004F0FFFF0C0E7718D8B4FFEF04F002EF01
:1009FC0005F0FFFF6CEF06F0FFFF0B0E7718D8B475
:100A0C000AEF05F00DEF05F0FFFF6CEF06F0FFFFAE
:100A1C00050E776414EF05F017EF05F0FFFF1CEFE0
:100A2C0005F0FFFF050E246E1FEF05F0FFFF77C0EA
:100A3C0024F0FFFF040E286E0C0E776E27C04BF0CF
:100A4C0024C04CF025C04DF02650F6EC10F06CEFA5
:100A5C0006F0FFFF040E75EC11F00B0E7718D8A4FE
:100A6C003AEF05F03DEF05F0FFFF4BEF05F0FFFF10
:100A7C0059505A10D8B445EF05F048EF05F0FFFF78
:100A8C004BEF05F0FFFF29EF04F0FFFF0A0E77187C
:100A9C00D8A453EF05F056EF05F0FFFF59EF05F022
:100AAC00FFFF3CEF04F0FFFF0C0E7718D8B461EF9A
:100ABC0005F064EF05F0FFFF6CEF06F0FFFF0B0E87
:100ACC007718D8B46CEF05F06FEF05F0FFFF6CEF03
:100ADC0006F0FFFF77C025F027C04BF024C04CF088
:100AEC0025C04DF02650F6EC10F06CEF06F0FFFF31
:100AFC000A0E7718D8A485EF05F088EF05F0FFFFF4
:100B0C009DEF05F0FFFF020E7618D8A490EF05F0CC
:100B1C0093EF05F0FFFF98EF05F0FFFF030E766EE5
:100B2C003CEF04F0FFFF040E766E3CEF04F0FFFF89
:100B3C00050E75EC11F02A04D8B4A7EF05F0AAEF56
:100B4C0005F0FFFFAFEF05F0FFFF000E766E6CEFC8
:100B5C0006F0FFFF2904D8B4B6EF05F0B9EF05F0A5
:100B6C00FFFFBEEF05F0FFFF010E766E6CEF06F097
:100B7C00FFFF020E766E7AEC10F0E806D8A4C9EFEF
:100B8C0005F0CCEF05F0FFFF6CEF06F0FFFF050E54
:100B9C00766E070E286E6CEF06F0FFFF060E75ECF6
:100BAC0011F0040E7618D8A4DEEF05F0E1EF05F095
:100BBC00FFFFFDEF05F0FFFF000E276E000E266E07
:100BCC00000E256E000E246E27C04BF024C04CF096
:100BDC0025C04DF02650F6EC10F0000E286E000EDD
:100BEC002A6E000E296E0C0E776E6CEF06F0FFFF6E
:100BFC00030E7618D8A405EF06F008EF06F0FFFFF9
:100C0C006CEF06F0FFFF0B0E7718D8A410EF06F070
:100C1C0013EF06F0FFFF18EF06F0FFFF050E286E2E
:100C2C000C0E776EFFFF0A0E7718D8A420EF06F093
:100C3C0023EF06F0FFFF6CEF06F0FFFF040E766E5D
:100C4C000C0E776E6CEF06F0FFFF010E556E060E64
:100C5C00566E33EC11F0130E556E060E566E26ECD6
:100C6C0011F0000E2A6E000E296E6CEF06F0FFFFDD
:100C7C002850576E586A5850000AD8B448EF06F0FE
:100C8C006CEF06F0FFFF5750000AD8B4F8EF03F0F2
:100C9C00010AD8B40FEF04F0030AD8B47BEF04F0C8
:100CAC00010AD8B4CDEF04F0070AD8B42FEF05F041
:100CBC00010AD8B47DEF05F0030AD8B4D3EF05F0E0
:100CCC00010AD8B42AEF06F06CEF06F0FFFF120011
:100CDC00FFFFFFFF5E6E320E1226000E1322DFEFB7
:100CEC0007F0FFFFF50E125C010E1358D8B081EF20
:100CFC0006F084EF06F0FFFF95EF06F0FFFF200EE5
:100D0C002B6E5E50300F2C6E5750300F2D6E3A0EEE
:100D1C002E6E5850300F2F6E5950300F306EFFFF23
:100D2C00F50E125C010E1358D8A09FEF06F0A2EF3F
:100D3C0006F0FFFF0AEF08F0FFFF200E2C6EE80E06
:100D4C00121807E1030E1318D8A4AFEF06F0B2EF98
:100D5C0006F0FFFF0AEF08F0FFFF000E136E000E07
:100D6C00126E0AEF08F0FFFFF40E121806E11304DE
:100D7C00D8A4C3EF06F0C6EF06F0FFFFD7EF06F0DE
:100D8C00FFFF200E2B6E5E50300F2C6E5750300F25
:100D9C002D6E3A0E2E6E5850300F2F6E5950300F5C
:100DAC00306EFFFFE80E121807E1030E1318D8A4DB
:100DBC00E2EF06F0E5EF06F0FFFF0AEF08F0FFFFA9
:100DCC00200E2D6E000E136E000E126E0AEF08F040
:100DDC00FFFFF40E121806E11304D8A4F8EF06F086
:100DEC00FBEF06F0FFFF0CEF07F0FFFF200E2B6E62
:100DFC005E50300F2C6E5750300F2D6E3A0E2E6EFB
:100E0C005850300F2F6E5950300F306EFFFFE80ED8
:100E1C00121807E1030E1318D8A417EF07F01AEFF6
:100E2C0007F0FFFF0AEF08F0FFFF200E2F6E000EF9
:100E3C00136E000E126E2DEF08F0FFFFF40E121859
:100E4C0006E11304D8A42DEF07F030EF07F0FFFFF5
:100E5C0041EF07F0FFFF200E2B6E5E50300F2C6E13
:100E6C005750300F2D6E3A0E2E6E5850300F2F6E8D
:100E7C005950300F306EFFFFE80E121807E1030EC9
:100E8C001318D8A44CEF07F04FEF07F0FFFF0AEF51
:100E9C0008F0FFFF200E306E000E136E000E126E67
:100EAC000AEF08F0FFFFF40E121806E11304D8A4A1
:100EBC0062EF07F065EF07F0FFFF76EF07F0FFFF3B
:100ECC00200E2B6E5E50300F2C6E5750300F2D6E47
:100EDC003A0E2E6E5850300F2F6E5950300F306E18
:100EEC00FFFFE80E121807E1030E1318D8A481EFC8
:100EFC0007F084EF07F0FFFF0AEF08F0FFFF200E6A
:100F0C002E6E000E136E000E126E0AEF08F0FFFF2D
:100F1C00F40E121806E11304D8A497EF07F09AEF19
:100F2C0007F0FFFFABEF07F0FFFF200E2B6E5E50BC
:100F3C00300F2C6E5750300F2D6E3A0E2E6E5850BF
:100F4C00300F2F6E5950300F306EFFFFE80E121815
:100F5C0007E1030E1318D8A4B6EF07F0B9EF07F0AA
:100F6C00FFFF0AEF08F0FFFF200E2B6E200E2C6EF9
:100F7C00200E2D6E200E2E6E200E2F6E200E306E3B
:100F8C00000E136E000E126E0AEF08F0FFFF200E1B
:100F9C002B6E5E50300F2C6E5750300F2D6E3A0E5C
:100FAC002E6E5850300F2F6E5950300F306E0AEF96
:100FBC0008F0FFFF5A505B6E5C6A5C50000AD8B4B4
:100FCC00EAEF07F00AEF08F0FFFF5B50000AD8B415
:100FDC0077EF06F0010AD8B4B9EF06F0030AD8B4DB
:100FEC00EEEF06F0010AD8B423EF07F0070AD8B4E5
:100FFC0058EF07F0010AD8B48DEF07F0030AD8B404
:10100C00CCEF07F00AEF08F0FFFF060E5D6EFFFF56
:10101C002B0E5D24D96EDA6A000EDA22200EDF6EFA
:10102C005D2A0F0E5D641DEF08F020EF08F0FFFF46
:10103C000DEF08F0FFFF2B0E556E000E566E33ECC5
:10104C0011F0470E556E060E566E26EC11F0FFFF92
:10105C001200FFFFFFFF0A0E1426000E1522140EBD
:10106C0014181510D8B43DEF08F040EF08F0FFFF4E
:10107C0043EF08F0FFFF64EF09F0FFFF000E156E61
:10108C00000E146E000E4D6EFFFF4D50030D090E39
:10109C00F324D96E000EF420DA6E4D50030D080EB9
:1010AC00F324E16E000EF420E26EDFCFE7FF4D502B
:1010BC00D8A463EF08F066EF08F0FFFF76EF08F0B6
:1010CC00FFFF4D50030D090EF324D96E000EF420D2
:1010DC00DA6E8138E8461F0B010BDF6E32EF09F038
:1010EC00FFFF4D04D8A47DEF08F080EF08F0FFFF60
:1010FC008FEF08F0FFFF4D50030D090EF324D96E4E
:10110C00000EF420DA6E81380F0B010BDF6E32EF1C
:10111C0009F0FFFF32EF09F0FFFF4D50030D080EF1
:10112C00F324D96E000EF420DA6EDF50D8A4A1EFB0
:10113C0008F0A4EF08F0FFFF59EF09F0FFFF4D5046
:10114C00030D090EF324D96E000EF420DA6EDF5075
:10115C00D8A4B3EF08F0B6EF08F0FFFF59EF09F091
:10116C00FFFF4D50030D0A0EF324D96E000EF42030
:10117C00DA6E010EDF6E59EF09F0FFFF4D50030DD3
:10118C00090EF324D96E000EF420DA6EDF50D8A4C9
:10119C00D2EF08F0D5EF08F0FFFF59EF09F0FFFF91
:1011AC004D50030D0A0EF324D96E000EF420DA6EA6
:1011BC00020EDF6E59EF09F0FFFF4D50030D080EC4
:1011CC00F324D96E000EF420DA6EDE04D8A4F1EF0D
:1011DC0008F0F4EF08F0FFFF59EF09F0FFFF4D5056
:1011EC00030D090EF324D96E000EF420DA6EDE0422
:1011FC00D8A403EF09F006EF09F0FFFF59EF09F04F
:10120C00FFFF4D50030D0A0EF324D96E000EF4208F
:10121C00DA6E030EDF6E59EF09F0FFFF4D50030D30
:10122C00090EF324D96E000EF420DA6EDE04D8A475
:10123C0022EF09F025EF09F0FFFF59EF09F0FFFF4E
:10124C004D50030D0A0EF324D96E000EF420DA6E05
:10125C00000EDF6E59EF09F0FFFF4D50030D0A0E23
:10126C00F324D96E000EF420DA6EDF504B6E4C6A0C
:10127C004C50000AD8B445EF09F059EF09F0FFFFC4
:10128C004B50000AD8B492EF08F0010AD8B4C3EF5F
:10129C0008F0030AD8B4E2EF08F0010AD8B413EF4F
:1012AC0009F059EF09F0FFFF4D2A010E4D6461EF73
:1012BC0009F064EF09F0FFFF4AEF08F0FFFF12009E
:1012CC00FFFFFFFF0F0E4E6E8150FE0B816E8150A3
:1012DC00FD0B0209816E8150FB0B0409816E190E06
:1012EC00FFFFE82EFDD783CF4DF0D8904D32D8902C
:1012FC004D32D8904D324DB086EF09F089EF09F0A0
:10130C00FFFF8CEF09F0FFFF010E4E6EFFFF83CF46
:10131C004DF0D8904D32D8904D324DB098EF09F039
:10132C009BEF09F0FFFF9EEF09F0FFFF040E4E6EDE
:10133C00FFFF83CF4DF0D8904D324DB0A8EF09F0A0
:10134C00ABEF09F0FFFFAEEF09F0FFFF070E4E6E9B
:10135C00FFFF83B0B4EF09F0B7EF09F0FFFFBAEF6E
:10136C0009F0FFFF0A0E4E6EFFFF8150FE0B0109C4
:10137C00816E8150FD0B816E8150FB0B0409816ED7
:10138C00190EFFFFE82EFDD783CF4DF0D8904D32CC
:10139C00D8904D32D8904D324DB0D7EF09F0DAEFEE
:1013AC0009F0FFFFDDEF09F0FFFF020E4E6EFFFFAD
:1013BC0083CF4DF0D8904D32D8904D324DB0E9EFEF
:1013CC0009F0ECEF09F0FFFFEFEF09F0FFFF050E5E
:1013DC004E6EFFFF83CF4DF0D8904D324DB0F9EFEC
:1013EC0009F0FCEF09F0FFFFFFEF09F0FFFF080E1B
:1013FC004E6EFFFF83B005EF0AF008EF0AF0FFFF17
:10140C000BEF0AF0FFFF000E4E6EFFFF8150FD0B3D
:10141C000209816E8150FD0B0209816E8150FB0B1C
:10142C00816E190EFFFFE82EFDD783CF4DF0D890BB
:10143C004D32D8904D32D8904D324DB028EF0AF045
:10144C002BEF0AF0FFFF2EEF0AF0FFFF030E4E6E9C
:10145C00FFFF83CF4DF0D8904D32D8904D324DB028
:10146C003AEF0AF03DEF0AF0FFFF40EF0AF0FFFF02
:10147C00060E4E6EFFFF83CF4DF0D8904D324DB01F
:10148C004AEF0AF04DEF0AF0FFFF50EF0AF0FFFFB2
:10149C00090E4E6EFFFF83B056EF0AF059EF0AF0BB
:1014AC00FFFF5CEF0AF0FFFF0B0E4E6EFFFF0F0EFF
:1014BC004E18D8A464EF0AF067EF0AF0FFFF70EF44
:1014CC000AF0FFFF0F0E196E0F0E726EFFFF000E6B
:1014DC0097EF0AF0FFFF19504E18D8A478EF0AF0D6
:1014EC007BEF0AF0FFFF92EF0AF0FFFF72504E18ED
:1014FC00D8B483EF0AF086EF0AF0FFFF92EF0AF000
:10150C00FFFF4BC0D9FF4CC0DAFF4EC0DFFF4EC00F
:10151C0072F0010E97EF0AF0FFFF4EC019F06CEF5E
:10152C000AF0FFFF1200FFFFFFFF616E62EF0BF08E
:10153C00FFFF250E556E060E566E33EC11F0690E3C
:10154C00556E060E566E26EC11F08DEF0BF0FFFF6C
:10155C0023C057F020C058F021C059F0000E5A6E2D
:10156C0022506FEC06F08DEF0BF0FFFF23C057F00D
:10157C0020C058F021C059F0010E5A6E22506FEC69
:10158C0006F08DEF0BF0FFFF23C057F020C058F092
:10159C0021C059F0020E5A6E22506FEC06F08DEFFE
:1015AC000BF0FFFF23C057F020C058F021C059F0BA
:1015BC00030E5A6E22506FEC06F08DEF0BF0FFFF0E
:1015CC00020E1F18D8A4EDEF0AF0F0EF0AF0FFFF9F
:1015DC0004EF0BF0FFFF23C057F020C058F021C0E0
:1015EC0059F0040E5A6E22506FEC06F08A0E556EAE
:1015FC00060E566E26EC11F08DEF0BF0FFFF1F5010
:10160C00D8A40BEF0BF00EEF0BF0FFFF22EF0BF05B
:10161C00FFFF23C057F020C058F021C059F0050E31
:10162C005A6E22506FEC06F0360E556E060E566E44
:10163C0026EC11F08DEF0BF0FFFF1F04D8A429EF5F
:10164C000BF02CEF0BF0FFFF40EF0BF0FFFF23C074
:10165C0057F020C058F021C059F0050E5A6E225098
:10166C006FEC06F0580E556E060E566E26EC11F009
:10167C008DEF0BF0FFFF8DEF0BF0FFFF030E1F182C
:10168C00D8A44BEF0BF04EEF0BF0FFFF40EF0BF03D
:10169C00FFFF23C057F020C058F021C059F0050EB1
:1016AC005A6E22506FEC06F07A0E556E060E566E80
:1016BC0026EC11F08DEF0BF0FFFF61505F6E606A4E
:1016CC006050000AD8B46DEF0BF08DEF0BF0FFFFFC
:1016DC005F50000AD8B49EEF0AF0010AD8B4ADEFFF
:1016EC000AF0030AD8B4BBEF0AF0010AD8B4C9EF68
:1016FC000AF0070AD8B4D7EF0AF0010AD8B4E5EF1C
:10170C000AF0030AD8B443EF0BF08DEF0BF0FFFF98
:10171C001200FFFFFFFF000E506E4EBE9BEF0BF052
:10172C0098EF0BF0FFFFA2EF0BF0FFFF4D6C4E1E7E
:10173C00D8B04E2A010E506EFFFF4CBEABEF0BF033
:10174C00A8EF0BF0FFFFB2EF0BF0FFFF4B6C4C1E42
:10175C00D8B04C2A010E501AFFFF000E526E000E2C
:10176C00516E4D504E10D8B4BEEF0BF0C1EF0BF0D4
:10177C00FFFFF2EF0BF0FFFF010E4F6ECBEF0BF004
:10178C00FFFFD8904D364E364F2AFFFF4EAED1EFAD
:10179C000BF0D4EF0BF0FFFFC6EF0BF0FFFFFFFFDA
:1017AC00D890513652364D504B5C4E504C58D8A0B8
:1017BC00E2EF0BF0E5EF0BF0FFFFEBEF0BF0FFFFB1
:1017CC004D504B5E4E504C5A5180FFFFD8904E32CC
:1017DC004D324F2ED5EF0BF0FFFF5050D8B4F9EF30
:1017EC000BF0FCEF0BF0FFFF01EF0CF0FFFF516C67
:1017FC00521ED8B0522AFFFF51C04BF052C04CF0D1
:10180C001200FFFFFFFF000E506E4CBE13EF0CF0EA
:10181C0010EF0CF0FFFF1AEF0CF0FFFF4B6C4C1E9F
:10182C00D8B04C2A010E506EFFFF4EBE23EF0CF0C9
:10183C0020EF0CF0FFFF28EF0CF0FFFF4D6C4E1E5D
:10184C00D8B04E2AFFFF4D504E10D8B430EF0CF0EC
:10185C0033EF0CF0FFFF60EF0CF0FFFF010E4F6E4B
:10186C003DEF0CF0FFFFD8904D364E364F2AFFFF60
:10187C004EAE43EF0CF046EF0CF0FFFF38EF0CF0E0
:10188C00FFFFFFFF4D504B5C4E504C58D8A051EF12
:10189C000CF054EF0CF0FFFF59EF0CF0FFFF4D5024
:1018AC004B5E4E504C5AFFFFD8904E324D324F2E5D
:1018BC0047EF0CF0FFFF5050D8B467EF0CF06AEF15
:1018CC000CF0FFFF6FEF0CF0FFFF4B6C4C1ED8B011
:1018DC004C2AFFFF4BC04BF04CC04CF01200FFFFEA
:1018EC00FFFF4E6EB4EF0CF0FFFF4BC04CF0050E3B
:1018FC004D6EFFFFD8904C364D2E7FEF0CF0825082
:10190C00DF0B4C10826ED3EF0CF0FFFF4BC04CF092
:10191C00D8904C36D8904C368250FB0B4C10826EC3
:10192C00D3EF0CF0FFFF4C6A4BA001D04C8E8150D2
:10193C007F0B4C10816ED3EF0CF0FFFF4BC04CF0C3
:10194C00060E4D6EFFFFD8904C364D2EA8EF0CF0C6
:10195C008150BF0B4C10816ED3EF0CF0FFFF4E503B
:10196C004C6E4D6A4D50000AD8B4BFEF0CF0D3EF5B
:10197C000CF0FFFF4C50000AD8B47AEF0CF0010ABF
:10198C00D8B48BEF0CF0030AD8B498EF0CF0010A22
:10199C00D8B4A3EF0CF0D3EF0CF0FFFF1200FFFF55
:1019AC00FFFF0A0E7026000E7122E80E70180AE175
:1019BC00030E7118D8B4E5EF0CF0E8EF0CF0FFFF54
:1019CC00EBEF0CF0FFFF31EF0DF0FFFF000E716E2F
:1019DC00000E706E020E1C18D8A4F7EF0CF0FAEF84
:1019EC000CF0FFFF31EF0DF0FFFF1050D8A401EF0A
:1019FC000DF004EF0DF0FFFF14EF0DF0FFFF115091
:101A0C00D8B40BEF0DF00EEF0DF0FFFF14EF0DF04F
:101A1C00FFFF3B0E106E110631EF0DF0FFFF105063
:101A2C00D8A41BEF0DF01EEF0DF0FFFF2FEF0DF004
:101A3C00FFFF1150D8A425EF0DF028EF0DF0FFFF9C
:101A4C002FEF0DF0FFFF000E106E000E116E31EF38
:101A5C000DF0FFFF1006FFFF1200FFFFFFFF00015C
:101A6C00906F000190A13DEF0DF040EF0DF0FFFFE6
:101A7C0047EF0DF0FFFF8350EF0B1009836E4BEF18
:101A8C000DF0FFFF8350EF0B836EFFFF90A351EF20
:101A9C000DF054EF0DF0FFFF5BEF0DF0FFFF8350E7
:101AAC00DF0B2009836E5FEF0DF0FFFF8350DF0B20
:101ABC00836EFFFF90A565EF0DF068EF0DF0FFFF53
:101ACC006FEF0DF0FFFF8350BF0B4009836E73EF78
:101ADC000DF0FFFF8350BF0B836EFFFF90A779EFD4
:101AEC000DF07CEF0DF0FFFF83EF0DF0FFFF835047
:101AFC007F0B8009836E87EF0DF0FFFF83507F0B08
:101B0C00836EFFFF1200FFFFFFFF4B6E4BA091EFA8
:101B1C000DF094EF0DF0FFFF9BEF0DF0FFFF8350E6
:101B2C00EF0B1009836E9FEF0DF0FFFF8350EF0B4F
:101B3C00836EFFFF4BA2A5EF0DF0A8EF0DF0FFFF9A
:101B4C00AFEF0DF0FFFF8350DF0B2009836EB3EF77
:101B5C000DF0FFFF8350DF0B836EFFFF4BA4B9EF3B
:101B6C000DF0BCEF0DF0FFFFC3EF0DF0FFFF835046
:101B7C00BF0B4009836EC7EF0DF0FFFF8350BF0B07
:101B8C00836EFFFF4BA6CDEF0DF0D0EF0DF0FFFFF6
:101B9C00D7EF0DF0FFFF83507F0B8009836EDBEFD7
:101BAC000DF0FFFF83507F0B836EFFFF1200FFFFD2
:101BBC00FFFF0A0E0E26000E0F22320E0E180F100B
:101BCC00D8B4EBEF0DF0EEEF0DF0FFFFF1EF0DF0F1
:101BDC00FFFF2CEF0EF0FFFF000E0F6E000E0E6ECF
:101BEC004F0E4B6E000E4C6E67EC09F00009D8A43A
:101BFC0002EF0EF005EF0EF0FFFF08EF0EF0FFFF07
:101C0C002CEF0EF0FFFF1A501B18D8A410EF0EF09B
:101C1C0013EF0EF0FFFF18EF0EF0FFFF000E1B6E20
:101C2C00000E1A6EFFFF010E1A24D96EDA6A000E2E
:101C3C00DA224FC0DFFF060E1A6027EF0EF02AEFF4
:101C4C000EF0FFFF2CEF0EF0FFFF1A2AFFFF120021
:101C5C00FFFFFFFF620E4B6E000E4C6E08EC11F096
:101C6C0063C04BF04C6A000E4E6E0A0E4D6E08ECC3
:101C7C000CF04B50236E63C04BF04C6A000E4E6E52
:101C8C000A0E4D6E90EC0BF04B50226E62C04BF076
:101C9C004C6A000E4E6E0A0E4D6E08EC0CF04B505A
:101CAC00216E62C04BF04C6A000E4E6E0A0E4D6EE9
:101CBC0090EC0BF04B50206E0A0E7326320E7318FC
:101CCC00D8B46BEF0EF06EEF0EF0FFFF71EF0EF06D
:101CDC00FFFF77EF0EF0FFFF000E736E1E509AECB5
:101CEC000AF0FFFF1200FFFFFFFF9550EF0B956E00
:101CFC009550DF0B956E9550BF0B956E95507F0BE5
:101D0C00956E8350EF0B836E8350DF0B836E835085
:101D1C00BF0B836E83507F0B836E9650FB0B966EBE
:101D2C009650FD0B966E030ECAEC10F0320EFFFFB0
:101D3C00E82EFDD7030ECAEC10F0190EFFFFE82EAB
:101D4C00FDD7030ECAEC10F0020ECAEC10F0020E16
:101D5C00CAEC10F0080ECAEC10F0000ECAEC10F031
:101D6C000C0ECAEC10F0000ECAEC10F0060ECAEC09
:101D7C0010F01200FFFFFFFF0001926FE0EF0EF07A
:101D8C00FFFF9350F70B0809936E010E086E010EBE
:101D9C00096E000E0A6EF8EF0EF0FFFF9350EF0B7A
:101DAC001009936E010E0B6E010E0C6E000E0D6E73
:101DBC00F8EF0EF0FFFF00019251906F916B915173
:101DCC00000AD8B4ECEF0EF0F8EF0EF0FFFF9051D4
:101DDC00000AD8B4C6EF0EF0010AD8B4D3EF0EF057
:101DEC00F8EF0EF0FFFF1200FFFFFFFF4DC051F0A8
:101DFC004EC052F04BC053F04CC054F0FFFF51504A
:101E0C004F6E5250506E514A522A4FC0F6FF50C07E
:101E1C00F7FFF86A53C0D9FF54C0DAFF534A542A6B
:101E2C00050EF76404D00800FFFFF55005D0F6CF7F
:101E3C00E9FFF7CFEAFFEF50DF6EDF50D8A429EFB0
:101E4C000FF02CEF0FF0FFFF04EF0FF0FFFF12006D
:101E5C00FFFFFFFF0A0E1D26640E1D18D8A439EFD4
:101E6C000FF03CEF0FF0FFFF47EF0FF0FFFF000EFE
:101E7C004B6E020E76EC0CF0010E4B6E030E76ECF4
:101E8C000CF0FFFFC80E1D18D8A44FEF0FF052EF47
:101E9C000FF0FFFF5FEF0FF0FFFF010E4B6E020E16
:101EAC0076EC0CF0000E4B6E030E76EC0CF0000E84
:101EBC001D6EFFFF1200FFFFFFFF4E6E4E500F0B0B
:101ECC004C6E4E50F00B4D6E8450FB0B0409846E1F
:101EDC004D380F0B8AEC0DF08450FD0B0209846E0B
:101EEC00050EFFFFE82EFDD78450FD0B846E050E0A
:101EFC00FFFFE82EFDD74C508AEC0DF08450FD0B03
:101F0C000209846E050EFFFFE82EFDD78450FD0BF1
:101F1C00846E050EFFFFE82EFDD71200FFFFFFFFBA
:101F2C000A0E74261E0E7418D8A49FEF0FF0A2EFA1
:101F3C000FF0FFFFACEF0FF0FFFF800E586E000E9E
:101F4C00596E000E5A6E000EC6EC0FF0FFFF3C0EE1
:101F5C007418D8A4B4EF0FF0B7EF0FF0FFFFC3EF76
:101F6C000FF0FFFF3B0E586E000E596E000E5A6EAE
:101F7C00010EC6EC0FF0000E746EFFFF1200FFFF97
:101F8C00FFFF5B6E000E5C6EDCEF0FF0FFFF5BC0C3
:101F9C0055F05C505A24566E5C505824D96E000E85
:101FAC005920DA6EDF5040EC11F05C2AFFFF5C50D8
:101FBC005824D96E000E5920DA6EDF50D8A4E9EF00
:101FCC000FF0ECEF0FF0FFFFCCEF0FF0FFFF120064
:101FDC00FFFFFFFF516E5150400DF3504D244E6EDC
:101FEC004E04546E54504E6E4F6A800E4E12000EBC
:101FFC004F12040E506EFFFF4F344F324E32502EA4
:10200C0001EF10F04E50536E545080090F0B526E6E
:10201C005350E1EC10F05250E1EC10F01200FFFFC5
:10202C00020EF66E230EF76E000EF86E00EE70F0D8
:10203C0010EE08F00900F5CFEEFFE550E150FAE1A3
:10204C0000EE80F0100EEE6AE806FDE100EE01F005
:10205C004A0EEE6AE806FDE178907892000EF86E72
:10206C000001B2EF10F0FFFF1A501B5CD8B041EF2B
:10207C0010F044EF10F0FFFF55EF10F0FFFF010ED2
:10208C001B24D96EDA6A000EDA224BC0E1FF4CC079
:10209C00E2FFDFCFE7FF1B2A010E57EF10F0FFFF27
:1020AC00000EFFFF1200FFFFFFFF9350FE0B936E1D
:1020BC009350FD0B936E9350FB0B936E9550F70B57
:1020CC000809956E9550FB0B0409956E9550FD0B08
:1020DC000209956E9550FE0B0109956E000E1B6E54
:1020EC00000E1A6E1200FFFFFFFF1150D8A481EFF3
:1020FC0010F084EF10F0FFFF92EF10F0FFFF105084
:10210C00D8A48BEF10F08EEF10F0FFFF92EF10F0D1
:10211C00FFFF010E94EF10F0FFFF000EFFFF120007
:10212C00FFFFFFFF9450DF0B946E9450FB0B946EEB
:10213C0093507F0B936E9350BF0B936E8250DF0BBB
:10214C00826E8250FB0B826E81507F0B816E8150B0
:10215C00BF0B816E1200FFFFFFFF7AEC0EF068ECF4
:10216C0011F05AEC10F060EC11F04CEC11F0010E87
:10217C00C1EC0EF0000EC1EC0EF097EC10F0FFFF6E
:10218C00C5EF10F04AEF00F0FFFF0001916F845093
:10219C00FB0B846E0001915134EC0DF08450FD0B5F
:1021AC000209846E050EFFFFE82EFDD78450FD0B4F
:1021BC00846E1200FFFFFFFF4C6E8450FB0B846E8D
:1021CC004C508AEC0DF08450FD0B0209846E050E08
:1021DC00FFFFE82EFDD78450FD0B846E1200FFFF2D
:1021EC00FFFF4E6E4E500A0DF3504B244E6E4C506A
:1021FC000A0DF3504D244C6E4CC010F04EC011F033
:10220C001200FFFFFFFF4BC0D9FF4CC0DAFF10C01C
:10221C00DFFF20EE01F04B50D9264C50DA2211C0D2
:10222C00DFFF1200FFFFFFFF4B6E4B50030D0A0E3A
:10223C00F324D96E000EF420DA6EDF501200FFFF8B
:10224C00FFFF3B0E4B6E000E4C6E55C04DF056C052
:10225C004EF0FBEC0EF01200FFFFFFFF800E4B6EFA
:10226C00000E4C6E55C04DF056C04EF0FBEC0EF00F
:10227C001200FFFFFFFF576E56284D6E5550EFECC6
:10228C000FF0575062EC0FF01200FFFFFFFFF294BB
:10229C00F70ED76E3C0ED66EF28AF28ED58E1200E9
:1022AC00FFFFFFFF000EE1EC10F0010EE1EC10F06F
:1022BC001200FFFFFFFFD594D582D590D596D59E01
:1022CC001200FFFFFFFF000E106E000E116E1200C9
:1022DC00FFFFFFFF4B6E4BC01CF01200FFFFFFFF18
:1022EC004B6E4BC01EF01200FFFFFFFF4B6E4BC03E
:1022FC001FF01200FFFF14000F0A140A040CFFFF5A
:020000040020DA
:08000000FFFFFFFFFFFFFFFF00
:020000040030CA
:0E000000FF210D0EFF0080FF0FC00FE00F402C
:00000001FF
